:100A7B0002650004010800013100010A01010900AF
:100B9E008B688A69896AE4F5B3F5B475B302FF12FE
:0B0BAE000B57AB68AA69A96A020AFE97
:100BD300BF4D0BE4F5B375B40175B301FF22D2A683
:060BE300120B2B7F012222
:060C430012096354C0FF1A
:010C49002288
:100ACE00856616E509C394005003E4F509E4FFE5D5
:100ADE00092F75F00984740B25F0F8E6FE74172FB4
:100AEE00F8A6060FBF09E87B007A007914020B9E68
:10080000E4F594F595F5B4120C25120C30120C1386
:10081000120C3AC2817F01120B57D2A6E4F567C2CF
:10082000857F0A120BE9D2857FE8120BE90567E59F
:1008300067D3940140E97B007A007914120B2BAF47
:10084000147E00EF65667002E5656018E515656663
:100850007002E565600EE51665667002E565600488
:10086000D2A680D2EFB56609EEB56505E4F56780DE
:1008700011E515B56609E4B5650575670180037571
:1008800067027516FF7515FF7514FFD282E56714B0
:10089000600B146016240270217FAA801A7F011257
:1008A0000BE97FF5120BFF7FC3800C7F02120BE96F
:1008B0007FF5120BFF7FCD120BFFC28CC282120A92
:1008C000CED282A285B392857F01120B57D2A61297
:0708D0000C3AC28202083657
:03000B00020A27BF
:100A2700C0E0C0F0C083C082C0D075D000C000C095
:100A370001C002C003C004C005C006C007758CD141
:100A4700758A207F03120B81740B2509F8A607E529
:100A5700090475F0098485F009D007D006D005D0C0
:100A670004D003D002D001D000D0D0D082D083D020
:040A7700F0D0E032A9
:100A8B000F43D8D800000000000000656565636F58
:100A9B000C0F34D8D80000000000000065656563BA
:020AAB006F0DCD
:0D0BB900EEFD3395E08D82F58312097CFF7F
:0D0BC6005391DF8FB2E59130E5FBAFB22215
:0B0C2500D2A77F03120BE975B3022277
:100B5700EF7007FB7A00794380067B007A007934CF
:100B67008B6B8A6C896DD2A3E4FEAB6BAA6CA96D03
:090B7700120BB90EBE0FF3C2A36C
:010B80002252
:060AFE008B6B8A6C896D10
:100B0400D2A6E4FE743D2EF8E6FF120BC60EBE0319
:100B1400F3E4FEAB6BAA6CA96D120BB90EBE1BF30A
:070B2400C2A67F91020BFF46
:060B2B008B688A69896AEB
:100B310030A2FDC2A6E4FEE4FF120BC6AB68AA69AF
:100B4100A96AEEFD3395E08D82F583EF1209A90EB6
:050B5100BE1BE47F0162
:010B5600227C
:020BFF008F6EF7
:100C0100E4F56F056FE56FB402F9AF6E156EEF7025
:010C1100F9E9
:010C120022BF
:100BE9008F68AF681568EF600C7FF5120BFF7FF512
:060BF900120BFF80ED224B
:0A0C300075A13053A41C43A4012257
:100B8100E4FDFCEF24B0F5A153A17F43A180E591E1
:0C0B910030E4FB5391EFAFA2AD077E00F3
:010B9D002235
:100AAD00025230F8025EA7E8025471F00256D5E00A
:100ABD00025820D1025A80C1025CE0B10260ED63A0
:100C1300E58954F04401F589438E0FD2B9D2A9D2A4
:020C2300AF22FE
:090C3A00758CE0758AD5D28C227C
:1009CB00EF24FE601F14602314602714602B24FB9C
:1009DB00602E14603224FC6035240E70387B007A54
:1009EB00007954227B007A007956227B007A0079B9
:1009FB0058227B007A00795A227B007A00795C229C
:100A0B007B007A007960227B007A007952227B008E
:0C0A1B007A00795E227B007A00790022CC
:030000000208D71C
:0C08D700787FE4F6D8FD75816F02091EE1
:10096300BB010689828A83E0225002E722BBFE0292
:09097300E32289828A83E49322C5
:10097C00BB010CE58229F582E5833AF583E0225030
:10098C0006E92582F8E622BBFE06E92582F8E2227A
:0D099C00E58229F582E5833AF583E4932294
:1009A900F8BB010DE58229F582E5833AF583E8F084
:1009B900225006E92582C8F622BBFE05E92582C830
:0209C900F22218
:1008E300020800E493A3F8E493A34003F68001F223
:1008F30008DFF48029E493A3F85407240CC8C33316
:10090300C4540F4420C8834004F456800146F6DFE4
:10091300E4800B0102040810204080900A7BE47EEF
:10092300019360BCA3FF543F30E509541FFEE493D9
:10093300A360010ECF54C025E060A840B8E493A3A0
:10094300FAE493A3F8E493A3C8C582C8CAC583CACB
:10095300F0A3C8C582C8CAC583CADFE9DEE780BE83
:010ACD000028
:00000001FF
